{
    "_format": "hh-sol-artifact-1",
    "contractName": "MyEpicGame",
    "sourceName": "contracts/MyEpicGame.sol",
    "abi": [
        {
            "inputs": [
                {
                    "internalType": "string[]",
                    "name": "characterNames",
                    "type": "string[]"
                },
                {
                    "internalType": "string[]",
                    "name": "characterImageURIs",
                    "type": "string[]"
                },
                {
                    "internalType": "uint256[]",
                    "name": "characterHp",
                    "type": "uint256[]"
                },
                {
                    "internalType": "uint256[]",
                    "name": "characterAttackDmg",
                    "type": "uint256[]"
                },
                {
                    "internalType": "string",
                    "name": "bossName",
                    "type": "string"
                },
                {
                    "internalType": "string",
                    "name": "bossImageURI",
                    "type": "string"
                },
                {
                    "internalType": "uint256",
                    "name": "bossHp",
                    "type": "uint256"
                },
                {
                    "internalType": "uint256",
                    "name": "bossAttackDamage",
                    "type": "uint256"
                }
            ],
            "stateMutability": "nonpayable",
            "type": "constructor"
        },
        {
            "anonymous": false,
            "inputs": [
                {
                    "indexed": true,
                    "internalType": "address",
                    "name": "owner",
                    "type": "address"
                },
                {
                    "indexed": true,
                    "internalType": "address",
                    "name": "approved",
                    "type": "address"
                },
                {
                    "indexed": true,
                    "internalType": "uint256",
                    "name": "tokenId",
                    "type": "uint256"
                }
            ],
            "name": "Approval",
            "type": "event"
        },
        {
            "anonymous": false,
            "inputs": [
                {
                    "indexed": true,
                    "internalType": "address",
                    "name": "owner",
                    "type": "address"
                },
                {
                    "indexed": true,
                    "internalType": "address",
                    "name": "operator",
                    "type": "address"
                },
                {
                    "indexed": false,
                    "internalType": "bool",
                    "name": "approved",
                    "type": "bool"
                }
            ],
            "name": "ApprovalForAll",
            "type": "event"
        },
        {
            "anonymous": false,
            "inputs": [
                {
                    "indexed": false,
                    "internalType": "uint256",
                    "name": "newBossHp",
                    "type": "uint256"
                },
                {
                    "indexed": false,
                    "internalType": "uint256",
                    "name": "newPlayerHp",
                    "type": "uint256"
                }
            ],
            "name": "AttackComplete",
            "type": "event"
        },
        {
            "anonymous": false,
            "inputs": [
                {
                    "indexed": false,
                    "internalType": "address",
                    "name": "sender",
                    "type": "address"
                },
                {
                    "indexed": false,
                    "internalType": "uint256",
                    "name": "tokenId",
                    "type": "uint256"
                },
                {
                    "indexed": false,
                    "internalType": "uint256",
                    "name": "characterIndex",
                    "type": "uint256"
                }
            ],
            "name": "CharacterNFTMinted",
            "type": "event"
        },
        {
            "anonymous": false,
            "inputs": [
                {
                    "indexed": true,
                    "internalType": "address",
                    "name": "from",
                    "type": "address"
                },
                {
                    "indexed": true,
                    "internalType": "address",
                    "name": "to",
                    "type": "address"
                },
                {
                    "indexed": true,
                    "internalType": "uint256",
                    "name": "tokenId",
                    "type": "uint256"
                }
            ],
            "name": "Transfer",
            "type": "event"
        },
        {
            "inputs": [
                {
                    "internalType": "address",
                    "name": "to",
                    "type": "address"
                },
                {
                    "internalType": "uint256",
                    "name": "tokenId",
                    "type": "uint256"
                }
            ],
            "name": "approve",
            "outputs": [],
            "stateMutability": "nonpayable",
            "type": "function"
        },
        {
            "inputs": [],
            "name": "attackBoss",
            "outputs": [],
            "stateMutability": "nonpayable",
            "type": "function"
        },
        {
            "inputs": [
                {
                    "internalType": "address",
                    "name": "owner",
                    "type": "address"
                }
            ],
            "name": "balanceOf",
            "outputs": [
                {
                    "internalType": "uint256",
                    "name": "",
                    "type": "uint256"
                }
            ],
            "stateMutability": "view",
            "type": "function"
        },
        {
            "inputs": [],
            "name": "bigBoss",
            "outputs": [
                {
                    "internalType": "string",
                    "name": "name",
                    "type": "string"
                },
                {
                    "internalType": "string",
                    "name": "imageURI",
                    "type": "string"
                },
                {
                    "internalType": "uint256",
                    "name": "hp",
                    "type": "uint256"
                },
                {
                    "internalType": "uint256",
                    "name": "maxHp",
                    "type": "uint256"
                },
                {
                    "internalType": "uint256",
                    "name": "attackDamage",
                    "type": "uint256"
                }
            ],
            "stateMutability": "view",
            "type": "function"
        },
        {
            "inputs": [],
            "name": "checkIfUserHasNFT",
            "outputs": [
                {
                    "components": [
                        {
                            "internalType": "uint256",
                            "name": "characterIndex",
                            "type": "uint256"
                        },
                        {
                            "internalType": "string",
                            "name": "name",
                            "type": "string"
                        },
                        {
                            "internalType": "string",
                            "name": "imageURI",
                            "type": "string"
                        },
                        {
                            "internalType": "uint256",
                            "name": "hp",
                            "type": "uint256"
                        },
                        {
                            "internalType": "uint256",
                            "name": "maxHp",
                            "type": "uint256"
                        },
                        {
                            "internalType": "uint256",
                            "name": "attackDamage",
                            "type": "uint256"
                        }
                    ],
                    "internalType": "struct MyEpicGame.CharacterAttributes",
                    "name": "",
                    "type": "tuple"
                }
            ],
            "stateMutability": "view",
            "type": "function"
        },
        {
            "inputs": [],
            "name": "getAllDefaultCharacters",
            "outputs": [
                {
                    "components": [
                        {
                            "internalType": "uint256",
                            "name": "characterIndex",
                            "type": "uint256"
                        },
                        {
                            "internalType": "string",
                            "name": "name",
                            "type": "string"
                        },
                        {
                            "internalType": "string",
                            "name": "imageURI",
                            "type": "string"
                        },
                        {
                            "internalType": "uint256",
                            "name": "hp",
                            "type": "uint256"
                        },
                        {
                            "internalType": "uint256",
                            "name": "maxHp",
                            "type": "uint256"
                        },
                        {
                            "internalType": "uint256",
                            "name": "attackDamage",
                            "type": "uint256"
                        }
                    ],
                    "internalType": "struct MyEpicGame.CharacterAttributes[]",
                    "name": "",
                    "type": "tuple[]"
                }
            ],
            "stateMutability": "view",
            "type": "function"
        },
        {
            "inputs": [
                {
                    "internalType": "uint256",
                    "name": "tokenId",
                    "type": "uint256"
                }
            ],
            "name": "getApproved",
            "outputs": [
                {
                    "internalType": "address",
                    "name": "",
                    "type": "address"
                }
            ],
            "stateMutability": "view",
            "type": "function"
        },
        {
            "inputs": [],
            "name": "getBigBoss",
            "outputs": [
                {
                    "components": [
                        {
                            "internalType": "string",
                            "name": "name",
                            "type": "string"
                        },
                        {
                            "internalType": "string",
                            "name": "imageURI",
                            "type": "string"
                        },
                        {
                            "internalType": "uint256",
                            "name": "hp",
                            "type": "uint256"
                        },
                        {
                            "internalType": "uint256",
                            "name": "maxHp",
                            "type": "uint256"
                        },
                        {
                            "internalType": "uint256",
                            "name": "attackDamage",
                            "type": "uint256"
                        }
                    ],
                    "internalType": "struct MyEpicGame.BigBoss",
                    "name": "",
                    "type": "tuple"
                }
            ],
            "stateMutability": "view",
            "type": "function"
        },
        {
            "inputs": [
                {
                    "internalType": "address",
                    "name": "owner",
                    "type": "address"
                },
                {
                    "internalType": "address",
                    "name": "operator",
                    "type": "address"
                }
            ],
            "name": "isApprovedForAll",
            "outputs": [
                {
                    "internalType": "bool",
                    "name": "",
                    "type": "bool"
                }
            ],
            "stateMutability": "view",
            "type": "function"
        },
        {
            "inputs": [
                {
                    "internalType": "uint256",
                    "name": "_characterIndex",
                    "type": "uint256"
                }
            ],
            "name": "mintCharacterNFT",
            "outputs": [],
            "stateMutability": "nonpayable",
            "type": "function"
        },
        {
            "inputs": [],
            "name": "name",
            "outputs": [
                {
                    "internalType": "string",
                    "name": "",
                    "type": "string"
                }
            ],
            "stateMutability": "view",
            "type": "function"
        },
        {
            "inputs": [
                {
                    "internalType": "uint256",
                    "name": "",
                    "type": "uint256"
                }
            ],
            "name": "nftHolderAttributes",
            "outputs": [
                {
                    "internalType": "uint256",
                    "name": "characterIndex",
                    "type": "uint256"
                },
                {
                    "internalType": "string",
                    "name": "name",
                    "type": "string"
                },
                {
                    "internalType": "string",
                    "name": "imageURI",
                    "type": "string"
                },
                {
                    "internalType": "uint256",
                    "name": "hp",
                    "type": "uint256"
                },
                {
                    "internalType": "uint256",
                    "name": "maxHp",
                    "type": "uint256"
                },
                {
                    "internalType": "uint256",
                    "name": "attackDamage",
                    "type": "uint256"
                }
            ],
            "stateMutability": "view",
            "type": "function"
        },
        {
            "inputs": [
                {
                    "internalType": "address",
                    "name": "",
                    "type": "address"
                }
            ],
            "name": "nftHolders",
            "outputs": [
                {
                    "internalType": "uint256",
                    "name": "",
                    "type": "uint256"
                }
            ],
            "stateMutability": "view",
            "type": "function"
        },
        {
            "inputs": [
                {
                    "internalType": "uint256",
                    "name": "tokenId",
                    "type": "uint256"
                }
            ],
            "name": "ownerOf",
            "outputs": [
                {
                    "internalType": "address",
                    "name": "",
                    "type": "address"
                }
            ],
            "stateMutability": "view",
            "type": "function"
        },
        {
            "inputs": [
                {
                    "internalType": "address",
                    "name": "from",
                    "type": "address"
                },
                {
                    "internalType": "address",
                    "name": "to",
                    "type": "address"
                },
                {
                    "internalType": "uint256",
                    "name": "tokenId",
                    "type": "uint256"
                }
            ],
            "name": "safeTransferFrom",
            "outputs": [],
            "stateMutability": "nonpayable",
            "type": "function"
        },
        {
            "inputs": [
                {
                    "internalType": "address",
                    "name": "from",
                    "type": "address"
                },
                {
                    "internalType": "address",
                    "name": "to",
                    "type": "address"
                },
                {
                    "internalType": "uint256",
                    "name": "tokenId",
                    "type": "uint256"
                },
                {
                    "internalType": "bytes",
                    "name": "_data",
                    "type": "bytes"
                }
            ],
            "name": "safeTransferFrom",
            "outputs": [],
            "stateMutability": "nonpayable",
            "type": "function"
        },
        {
            "inputs": [
                {
                    "internalType": "address",
                    "name": "operator",
                    "type": "address"
                },
                {
                    "internalType": "bool",
                    "name": "approved",
                    "type": "bool"
                }
            ],
            "name": "setApprovalForAll",
            "outputs": [],
            "stateMutability": "nonpayable",
            "type": "function"
        },
        {
            "inputs": [
                {
                    "internalType": "bytes4",
                    "name": "interfaceId",
                    "type": "bytes4"
                }
            ],
            "name": "supportsInterface",
            "outputs": [
                {
                    "internalType": "bool",
                    "name": "",
                    "type": "bool"
                }
            ],
            "stateMutability": "view",
            "type": "function"
        },
        {
            "inputs": [],
            "name": "symbol",
            "outputs": [
                {
                    "internalType": "string",
                    "name": "",
                    "type": "string"
                }
            ],
            "stateMutability": "view",
            "type": "function"
        },
        {
            "inputs": [
                {
                    "internalType": "uint256",
                    "name": "_tokenId",
                    "type": "uint256"
                }
            ],
            "name": "tokenURI",
            "outputs": [
                {
                    "internalType": "string",
                    "name": "",
                    "type": "string"
                }
            ],
            "stateMutability": "view",
            "type": "function"
        },
        {
            "inputs": [
                {
                    "internalType": "address",
                    "name": "from",
                    "type": "address"
                },
                {
                    "internalType": "address",
                    "name": "to",
                    "type": "address"
                },
                {
                    "internalType": "uint256",
                    "name": "tokenId",
                    "type": "uint256"
                }
            ],
            "name": "transferFrom",
            "outputs": [],
            "stateMutability": "nonpayable",
            "type": "function"
        }
    ],
    "bytecode": "0x60806040523480156200001157600080fd5b50604051620057ab380380620057ab833981810160405281019062000037919062000b6f565b6040518060400160405280600e81526020017f536f6e696320556e6976657273650000000000000000000000000000000000008152506040518060400160405280600581526020017f534f4e49430000000000000000000000000000000000000000000000000000008152508160009080519060200190620000bb92919062000715565b508060019080519060200190620000d492919062000715565b5050506040518060a0016040528085815260200184815260200183815260200183815260200182815250600a60008201518160000190805190602001906200011e92919062000715565b5060208201518160010190805190602001906200013d92919062000715565b50604082015181600201556060820151816003015560808201518160040155905050620002c06040518060600160405280602a815260200162005781602a9139600a60000180546200018f9062000d21565b80601f0160208091040260200160405190810160405280929190818152602001828054620001bd9062000d21565b80156200020e5780601f10620001e2576101008083540402835291602001916200020e565b820191906000526020600020905b815481529060010190602001808311620001f057829003601f168201915b5050505050600a60020154600a60010180546200022b9062000d21565b80601f0160208091040260200160405190810160405280929190818152602001828054620002599062000d21565b8015620002aa5780601f106200027e57610100808354040283529160200191620002aa565b820191906000526020600020905b8154815290600101906020018083116200028c57829003601f168201915b50505050506200062a60201b62001b171760201c565b60005b8851811015620006045760076040518060c001604052808381526020018b8481518110620002f657620002f562000d57565b5b602002602001015181526020018a848151811062000319576200031862000d57565b5b602002602001015181526020018984815181106200033c576200033b62000d57565b5b602002602001015181526020018984815181106200035f576200035e62000d57565b5b6020026020010151815260200188848151811062000382576200038162000d57565b5b60200260200101518152509080600181540180825580915050600190039060005260206000209060060201600090919091909150600082015181600001556020820151816001019080519060200190620003de92919062000715565b506040820151816002019080519060200190620003fd92919062000715565b50606082015181600301556080820151816004015560a08201518160050155505060006007828154811062000437576200043662000d57565b5b90600052602060002090600602016040518060c0016040529081600082015481526020016001820180546200046c9062000d21565b80601f01602080910402602001604051908101604052809291908181526020018280546200049a9062000d21565b8015620004eb5780601f10620004bf57610100808354040283529160200191620004eb565b820191906000526020600020905b815481529060010190602001808311620004cd57829003601f168201915b50505050508152602001600282018054620005069062000d21565b80601f0160208091040260200160405190810160405280929190818152602001828054620005349062000d21565b8015620005855780601f10620005595761010080835404028352916020019162000585565b820191906000526020600020905b8154815290600101906020018083116200056757829003601f168201915b5050505050815260200160038201548152602001600482015481526020016005820154815250509050620005ec6040518060600160405280602581526020016200575c602591398260200151836060015184604001516200062a60201b62001b171760201c565b50600181620005fc919062000db5565b9050620002c3565b506200061c6006620006d660201b62001bb91760201c565b505050505050505062000ee2565b620006d08484848460405160240162000647949392919062000e80565b6040516020818303038152906040527f8d142cdd000000000000000000000000000000000000000000000000000000007bffffffffffffffffffffffffffffffffffffffffffffffffffffffff19166020820180517bffffffffffffffffffffffffffffffffffffffffffffffffffffffff8381831617835250505050620006ec60201b60201c565b50505050565b6001816000016000828254019250508190555050565b60008151905060006a636f6e736f6c652e6c6f679050602083016000808483855afa5050505050565b828054620007239062000d21565b90600052602060002090601f01602090048101928262000747576000855562000793565b82601f106200076257805160ff191683800117855562000793565b8280016001018555821562000793579182015b828111156200079257825182559160200191906001019062000775565b5b509050620007a29190620007a6565b5090565b5b80821115620007c1576000816000905550600101620007a7565b5090565b6000604051905090565b600080fd5b600080fd5b600080fd5b6000601f19601f8301169050919050565b7f4e487b7100000000000000000000000000000000000000000000000000000000600052604160045260246000fd5b6200082982620007de565b810181811067ffffffffffffffff821117156200084b576200084a620007ef565b5b80604052505050565b600062000860620007c5565b90506200086e82826200081e565b919050565b600067ffffffffffffffff821115620008915762000890620007ef565b5b602082029050602081019050919050565b600080fd5b600080fd5b600067ffffffffffffffff821115620008ca57620008c9620007ef565b5b620008d582620007de565b9050602081019050919050565b60005b8381101562000902578082015181840152602081019050620008e5565b8381111562000912576000848401525b50505050565b60006200092f6200092984620008ac565b62000854565b9050828152602081018484840111156200094e576200094d620008a7565b5b6200095b848285620008e2565b509392505050565b600082601f8301126200097b576200097a620007d9565b5b81516200098d84826020860162000918565b91505092915050565b6000620009ad620009a78462000873565b62000854565b90508083825260208201905060208402830185811115620009d357620009d2620008a2565b5b835b8181101562000a2157805167ffffffffffffffff811115620009fc57620009fb620007d9565b5b80860162000a0b898262000963565b85526020850194505050602081019050620009d5565b5050509392505050565b600082601f83011262000a435762000a42620007d9565b5b815162000a5584826020860162000996565b91505092915050565b600067ffffffffffffffff82111562000a7c5762000a7b620007ef565b5b602082029050602081019050919050565b6000819050919050565b62000aa28162000a8d565b811462000aae57600080fd5b50565b60008151905062000ac28162000a97565b92915050565b600062000adf62000ad98462000a5e565b62000854565b9050808382526020820190506020840283018581111562000b055762000b04620008a2565b5b835b8181101562000b32578062000b1d888262000ab1565b84526020840193505060208101905062000b07565b5050509392505050565b600082601f83011262000b545762000b53620007d9565b5b815162000b6684826020860162000ac8565b91505092915050565b600080600080600080600080610100898b03121562000b935762000b92620007cf565b5b600089015167ffffffffffffffff81111562000bb45762000bb3620007d4565b5b62000bc28b828c0162000a2b565b985050602089015167ffffffffffffffff81111562000be65762000be5620007d4565b5b62000bf48b828c0162000a2b565b975050604089015167ffffffffffffffff81111562000c185762000c17620007d4565b5b62000c268b828c0162000b3c565b965050606089015167ffffffffffffffff81111562000c4a5762000c49620007d4565b5b62000c588b828c0162000b3c565b955050608089015167ffffffffffffffff81111562000c7c5762000c7b620007d4565b5b62000c8a8b828c0162000963565b94505060a089015167ffffffffffffffff81111562000cae5762000cad620007d4565b5b62000cbc8b828c0162000963565b93505060c062000ccf8b828c0162000ab1565b92505060e062000ce28b828c0162000ab1565b9150509295985092959890939650565b7f4e487b7100000000000000000000000000000000000000000000000000000000600052602260045260246000fd5b6000600282049050600182168062000d3a57607f821691505b6020821081141562000d515762000d5062000cf2565b5b50919050565b7f4e487b7100000000000000000000000000000000000000000000000000000000600052603260045260246000fd5b7f4e487b7100000000000000000000000000000000000000000000000000000000600052601160045260246000fd5b600062000dc28262000a8d565b915062000dcf8362000a8d565b9250827fffffffffffffffffffffffffffffffffffffffffffffffffffffffffffffffff0382111562000e075762000e0662000d86565b5b828201905092915050565b600081519050919050565b600082825260208201905092915050565b600062000e3b8262000e12565b62000e47818562000e1d565b935062000e59818560208601620008e2565b62000e6481620007de565b840191505092915050565b62000e7a8162000a8d565b82525050565b6000608082019050818103600083015262000e9c818762000e2e565b9050818103602083015262000eb2818662000e2e565b905062000ec3604083018562000e6f565b818103606083015262000ed7818462000e2e565b905095945050505050565b61486a8062000ef26000396000f3fe608060405234801561001057600080fd5b50600436106101375760003560e01c806395d89b41116100b8578063b953084e1161007c578063b953084e14610369578063c87b56dd14610387578063c8cf27f4146103b7578063d4f24c5b146103d5578063e985e9c5146103df578063f8b81ef71461040f57610137565b806395d89b41146102bc57806398da4c95146102da578063a22cb4651461030f578063a9c326791461032b578063b88d4fde1461034d57610137565b806323b872dd116100ff57806323b872dd146101f457806342842e0e146102105780636352211e1461022c57806370a082311461025c5780637df124a11461028c57610137565b806301ffc9a71461013c5780630665f9611461016c57806306fdde031461018a578063081812fc146101a8578063095ea7b3146101d8575b600080fd5b61015660048036038101906101519190612ce0565b61042b565b6040516101639190612d28565b60405180910390f35b61017461050d565b6040516101819190612e72565b60405180910390f35b610192610669565b60405161019f9190612ede565b60405180910390f35b6101c260048036038101906101bd9190612f2c565b6106fb565b6040516101cf9190612f9a565b60405180910390f35b6101f260048036038101906101ed9190612fe1565b610780565b005b61020e60048036038101906102099190613021565b610898565b005b61022a60048036038101906102259190613021565b6108f8565b005b61024660048036038101906102419190612f2c565b610918565b6040516102539190612f9a565b60405180910390f35b61027660048036038101906102719190613074565b6109ca565b60405161028391906130b0565b60405180910390f35b6102a660048036038101906102a19190613074565b610a82565b6040516102b391906130b0565b60405180910390f35b6102c4610a9a565b6040516102d19190612ede565b60405180910390f35b6102f460048036038101906102ef9190612f2c565b610b2c565b604051610306969594939291906130cb565b60405180910390f35b61032960048036038101906103249190613166565b610c78565b005b610333610c8e565b6040516103449594939291906131a6565b60405180910390f35b6103676004803603810190610362919061333c565b610dc2565b005b610371610e24565b60405161037e9190613511565b60405180910390f35b6103a1600480360381019061039c9190612f2c565b610fcf565b6040516103ae9190612ede565b60405180910390f35b6103bf6111ea565b6040516103cc91906135c3565b60405180910390f35b6103dd6113c2565b005b6103f960048036038101906103f491906135e5565b61174d565b6040516104069190612d28565b60405180910390f35b61042960048036038101906104249190612f2c565b6117e1565b005b60007f80ac58cd000000000000000000000000000000000000000000000000000000007bffffffffffffffffffffffffffffffffffffffffffffffffffffffff1916827bffffffffffffffffffffffffffffffffffffffffffffffffffffffff191614806104f657507f5b5e139f000000000000000000000000000000000000000000000000000000007bffffffffffffffffffffffffffffffffffffffffffffffffffffffff1916827bffffffffffffffffffffffffffffffffffffffffffffffffffffffff1916145b80610506575061050582611bcf565b5b9050919050565b610515612b6c565b600a6040518060a001604052908160008201805461053290613654565b80601f016020809104026020016040519081016040528092919081815260200182805461055e90613654565b80156105ab5780601f10610580576101008083540402835291602001916105ab565b820191906000526020600020905b81548152906001019060200180831161058e57829003601f168201915b505050505081526020016001820180546105c490613654565b80601f01602080910402602001604051908101604052809291908181526020018280546105f090613654565b801561063d5780601f106106125761010080835404028352916020019161063d565b820191906000526020600020905b81548152906001019060200180831161062057829003601f168201915b505050505081526020016002820154815260200160038201548152602001600482015481525050905090565b60606000805461067890613654565b80601f01602080910402602001604051908101604052809291908181526020018280546106a490613654565b80156106f15780601f106106c6576101008083540402835291602001916106f1565b820191906000526020600020905b8154815290600101906020018083116106d457829003601f168201915b5050505050905090565b600061070682611c39565b610745576040517f08c379a000000000000000000000000000000000000000000000000000000000815260040161073c906136f8565b60405180910390fd5b6004600083815260200190815260200160002060009054906101000a900473ffffffffffffffffffffffffffffffffffffffff169050919050565b600061078b82610918565b90508073ffffffffffffffffffffffffffffffffffffffff168373ffffffffffffffffffffffffffffffffffffffff1614156107fc576040517f08c379a00000000000000000000000000000000000000000000000000000000081526004016107f39061378a565b60405180910390fd5b8073ffffffffffffffffffffffffffffffffffffffff1661081b611ca5565b73ffffffffffffffffffffffffffffffffffffffff16148061084a575061084981610844611ca5565b61174d565b5b610889576040517f08c379a00000000000000000000000000000000000000000000000000000000081526004016108809061381c565b60405180910390fd5b6108938383611cad565b505050565b6108a96108a3611ca5565b82611d66565b6108e8576040517f08c379a00000000000000000000000000000000000000000000000000000000081526004016108df906138ae565b60405180910390fd5b6108f3838383611e44565b505050565b61091383838360405180602001604052806000815250610dc2565b505050565b6000806002600084815260200190815260200160002060009054906101000a900473ffffffffffffffffffffffffffffffffffffffff169050600073ffffffffffffffffffffffffffffffffffffffff168173ffffffffffffffffffffffffffffffffffffffff1614156109c1576040517f08c379a00000000000000000000000000000000000000000000000000000000081526004016109b890613940565b60405180910390fd5b80915050919050565b60008073ffffffffffffffffffffffffffffffffffffffff168273ffffffffffffffffffffffffffffffffffffffff161415610a3b576040517f08c379a0000000000000000000000000000000000000000000000000000000008152600401610a32906139d2565b60405180910390fd5b600360008373ffffffffffffffffffffffffffffffffffffffff1673ffffffffffffffffffffffffffffffffffffffff168152602001908152602001600020549050919050565b60096020528060005260406000206000915090505481565b606060018054610aa990613654565b80601f0160208091040260200160405190810160405280929190818152602001828054610ad590613654565b8015610b225780601f10610af757610100808354040283529160200191610b22565b820191906000526020600020905b815481529060010190602001808311610b0557829003601f168201915b5050505050905090565b6008602052806000526040600020600091509050806000015490806001018054610b5590613654565b80601f0160208091040260200160405190810160405280929190818152602001828054610b8190613654565b8015610bce5780601f10610ba357610100808354040283529160200191610bce565b820191906000526020600020905b815481529060010190602001808311610bb157829003601f168201915b505050505090806002018054610be390613654565b80601f0160208091040260200160405190810160405280929190818152602001828054610c0f90613654565b8015610c5c5780601f10610c3157610100808354040283529160200191610c5c565b820191906000526020600020905b815481529060010190602001808311610c3f57829003601f168201915b5050505050908060030154908060040154908060050154905086565b610c8a610c83611ca5565b83836120a0565b5050565b600a806000018054610c9f90613654565b80601f0160208091040260200160405190810160405280929190818152602001828054610ccb90613654565b8015610d185780601f10610ced57610100808354040283529160200191610d18565b820191906000526020600020905b815481529060010190602001808311610cfb57829003601f168201915b505050505090806001018054610d2d90613654565b80601f0160208091040260200160405190810160405280929190818152602001828054610d5990613654565b8015610da65780601f10610d7b57610100808354040283529160200191610da6565b820191906000526020600020905b815481529060010190602001808311610d8957829003601f168201915b5050505050908060020154908060030154908060040154905085565b610dd3610dcd611ca5565b83611d66565b610e12576040517f08c379a0000000000000000000000000000000000000000000000000000000008152600401610e09906138ae565b60405180910390fd5b610e1e8484848461220d565b50505050565b60606007805480602002602001604051908101604052809291908181526020016000905b82821015610fc657838290600052602060002090600602016040518060c001604052908160008201548152602001600182018054610e8590613654565b80601f0160208091040260200160405190810160405280929190818152602001828054610eb190613654565b8015610efe5780601f10610ed357610100808354040283529160200191610efe565b820191906000526020600020905b815481529060010190602001808311610ee157829003601f168201915b50505050508152602001600282018054610f1790613654565b80601f0160208091040260200160405190810160405280929190818152602001828054610f4390613654565b8015610f905780601f10610f6557610100808354040283529160200191610f90565b820191906000526020600020905b815481529060010190602001808311610f7357829003601f168201915b50505050508152602001600382015481526020016004820154815260200160058201548152505081526020019060010190610e48565b50505050905090565b60606000600860008481526020019081526020016000206040518060c00160405290816000820154815260200160018201805461100b90613654565b80601f016020809104026020016040519081016040528092919081815260200182805461103790613654565b80156110845780601f1061105957610100808354040283529160200191611084565b820191906000526020600020905b81548152906001019060200180831161106757829003601f168201915b5050505050815260200160028201805461109d90613654565b80601f01602080910402602001604051908101604052809291908181526020018280546110c990613654565b80156111165780601f106110eb57610100808354040283529160200191611116565b820191906000526020600020905b8154815290600101906020018083116110f957829003601f168201915b5050505050815260200160038201548152602001600482015481526020016005820154815250509050600061114e8260600151612269565b9050600061115f8360800151612269565b905060006111708460a00151612269565b905060006111b6856020015161118589612269565b87604001518787876040516020016111a296959493929190613d00565b6040516020818303038152906040526123ca565b90506000816040516020016111cb9190613df1565b6040516020818303038152906040529050809650505050505050919050565b6111f2612b9b565b6000600960003373ffffffffffffffffffffffffffffffffffffffff1673ffffffffffffffffffffffffffffffffffffffff16815260200190815260200160002054905060008111156113b157600860008281526020019081526020016000206040518060c00160405290816000820154815260200160018201805461127790613654565b80601f01602080910402602001604051908101604052809291908181526020018280546112a390613654565b80156112f05780601f106112c5576101008083540402835291602001916112f0565b820191906000526020600020905b8154815290600101906020018083116112d357829003601f168201915b5050505050815260200160028201805461130990613654565b80601f016020809104026020016040519081016040528092919081815260200182805461133590613654565b80156113825780601f1061135757610100808354040283529160200191611382565b820191906000526020600020905b81548152906001019060200180831161136557829003601f168201915b5050505050815260200160038201548152602001600482015481526020016005820154815250509150506113bf565b6113b9612b9b565b80925050505b90565b6000600960003373ffffffffffffffffffffffffffffffffffffffff1673ffffffffffffffffffffffffffffffffffffffff16815260200190815260200160002054905060006008600083815260200190815260200160002090506114d56040518060600160405280603c81526020016147f9603c913982600101805461144890613654565b80601f016020809104026020016040519081016040528092919081815260200182805461147490613654565b80156114c15780601f10611496576101008083540402835291602001916114c1565b820191906000526020600020905b8154815290600101906020018083116114a457829003601f168201915b505050505083600301548460050154612562565b6115ad6040518060400160405280601b81526020017f426f73732025732068617320257320485020616e642025732041440000000000815250600a600001805461151e90613654565b80601f016020809104026020016040519081016040528092919081815260200182805461154a90613654565b80156115975780601f1061156c57610100808354040283529160200191611597565b820191906000526020600020905b81548152906001019060200180831161157a57829003601f168201915b5050505050600a60020154600a60040154612562565b60008160030154116115f4576040517f08c379a00000000000000000000000000000000000000000000000000000000081526004016115eb90613e85565b60405180910390fd5b6000600a600201541161163c576040517f08c379a000000000000000000000000000000000000000000000000000000000815260040161163390613f17565b60405180910390fd5b8060050154600a60020154101561165d576000600a6002018190555061167c565b8060050154600a600201546116729190613f66565b600a600201819055505b600a600401548160030154101561169c57600081600301819055506116ba565b600a6004015481600301546116b19190613f66565b81600301819055505b6116e160405180606001604052806025815260200161473e60259139600a60020154612604565b6117076040518060600160405280602881526020016147a3602891398260030154612604565b7f838ab28464562786a6c4ab2311964b82fa60bd9b14aa7e856af1f3f18d41a414600a600201548260030154604051611741929190613f9a565b60405180910390a15050565b6000600560008473ffffffffffffffffffffffffffffffffffffffff1673ffffffffffffffffffffffffffffffffffffffff16815260200190815260200160002060008373ffffffffffffffffffffffffffffffffffffffff1673ffffffffffffffffffffffffffffffffffffffff16815260200190815260200160002060009054906101000a900460ff16905092915050565b60006117ed60066126a0565b90506117f933826126ae565b6040518060c001604052808381526020016007848154811061181e5761181d613fc3565b5b9060005260206000209060060201600101805461183a90613654565b80601f016020809104026020016040519081016040528092919081815260200182805461186690613654565b80156118b35780601f10611888576101008083540402835291602001916118b3565b820191906000526020600020905b81548152906001019060200180831161189657829003601f168201915b50505050508152602001600784815481106118d1576118d0613fc3565b5b906000526020600020906006020160020180546118ed90613654565b80601f016020809104026020016040519081016040528092919081815260200182805461191990613654565b80156119665780601f1061193b57610100808354040283529160200191611966565b820191906000526020600020905b81548152906001019060200180831161194957829003601f168201915b505050505081526020016007848154811061198457611983613fc3565b5b9060005260206000209060060201600301548152602001600784815481106119af576119ae613fc3565b5b9060005260206000209060060201600401548152602001600784815481106119da576119d9613fc3565b5b90600052602060002090600602016005015481525060086000838152602001908152602001600020600082015181600001556020820151816001019080519060200190611a28929190612bd1565b506040820151816002019080519060200190611a45929190612bd1565b50606082015181600301556080820151816004015560a08201518160050155905050611a8a6040518060600160405280602e81526020016147cb602e913982846126cc565b80600960003373ffffffffffffffffffffffffffffffffffffffff1673ffffffffffffffffffffffffffffffffffffffff16815260200190815260200160002081905550611ad86006611bb9565b7f4bc303fd457a97b4691b9af582ce71868a3d258638c8d4f8c60988a0f0bfb8cd338284604051611b0b93929190613ff2565b60405180910390a15050565b611bb384848484604051602401611b319493929190614029565b6040516020818303038152906040527f8d142cdd000000000000000000000000000000000000000000000000000000007bffffffffffffffffffffffffffffffffffffffffffffffffffffffff19166020820180517bffffffffffffffffffffffffffffffffffffffffffffffffffffffff838183161783525050505061276b565b50505050565b6001816000016000828254019250508190555050565b60007f01ffc9a7000000000000000000000000000000000000000000000000000000007bffffffffffffffffffffffffffffffffffffffffffffffffffffffff1916827bffffffffffffffffffffffffffffffffffffffffffffffffffffffff1916149050919050565b60008073ffffffffffffffffffffffffffffffffffffffff166002600084815260200190815260200160002060009054906101000a900473ffffffffffffffffffffffffffffffffffffffff1673ffffffffffffffffffffffffffffffffffffffff1614159050919050565b600033905090565b816004600083815260200190815260200160002060006101000a81548173ffffffffffffffffffffffffffffffffffffffff021916908373ffffffffffffffffffffffffffffffffffffffff160217905550808273ffffffffffffffffffffffffffffffffffffffff16611d2083610918565b73ffffffffffffffffffffffffffffffffffffffff167f8c5be1e5ebec7d5bd14f71427d1e84f3dd0314c0f7b2291e5b200ac8c7c3b92560405160405180910390a45050565b6000611d7182611c39565b611db0576040517f08c379a0000000000000000000000000000000000000000000000000000000008152600401611da7906140f5565b60405180910390fd5b6000611dbb83610918565b90508073ffffffffffffffffffffffffffffffffffffffff168473ffffffffffffffffffffffffffffffffffffffff161480611e2a57508373ffffffffffffffffffffffffffffffffffffffff16611e12846106fb565b73ffffffffffffffffffffffffffffffffffffffff16145b80611e3b5750611e3a818561174d565b5b91505092915050565b8273ffffffffffffffffffffffffffffffffffffffff16611e6482610918565b73ffffffffffffffffffffffffffffffffffffffff1614611eba576040517f08c379a0000000000000000000000000000000000000000000000000000000008152600401611eb190614187565b60405180910390fd5b600073ffffffffffffffffffffffffffffffffffffffff168273ffffffffffffffffffffffffffffffffffffffff161415611f2a576040517f08c379a0000000000000000000000000000000000000000000000000000000008152600401611f2190614219565b60405180910390fd5b611f35838383612794565b611f40600082611cad565b6001600360008573ffffffffffffffffffffffffffffffffffffffff1673ffffffffffffffffffffffffffffffffffffffff1681526020019081526020016000206000828254611f909190613f66565b925050819055506001600360008473ffffffffffffffffffffffffffffffffffffffff1673ffffffffffffffffffffffffffffffffffffffff1681526020019081526020016000206000828254611fe79190614239565b92505081905550816002600083815260200190815260200160002060006101000a81548173ffffffffffffffffffffffffffffffffffffffff021916908373ffffffffffffffffffffffffffffffffffffffff160217905550808273ffffffffffffffffffffffffffffffffffffffff168473ffffffffffffffffffffffffffffffffffffffff167fddf252ad1be2c89b69c2b068fc378daa952ba7f163c4a11628f55a4df523b3ef60405160405180910390a4505050565b8173ffffffffffffffffffffffffffffffffffffffff168373ffffffffffffffffffffffffffffffffffffffff16141561210f576040517f08c379a0000000000000000000000000000000000000000000000000000000008152600401612106906142db565b60405180910390fd5b80600560008573ffffffffffffffffffffffffffffffffffffffff1673ffffffffffffffffffffffffffffffffffffffff16815260200190815260200160002060008473ffffffffffffffffffffffffffffffffffffffff1673ffffffffffffffffffffffffffffffffffffffff16815260200190815260200160002060006101000a81548160ff0219169083151502179055508173ffffffffffffffffffffffffffffffffffffffff168373ffffffffffffffffffffffffffffffffffffffff167f17307eab39ab6107e8899845ad3d59bd9653f200f220920489ca2b5937696c31836040516122009190612d28565b60405180910390a3505050565b612218848484611e44565b61222484848484612799565b612263576040517f08c379a000000000000000000000000000000000000000000000000000000000815260040161225a9061436d565b60405180910390fd5b50505050565b606060008214156122b1576040518060400160405280600181526020017f300000000000000000000000000000000000000000000000000000000000000081525090506123c5565b600082905060005b600082146122e35780806122cc9061438d565b915050600a826122dc9190614405565b91506122b9565b60008167ffffffffffffffff8111156122ff576122fe613211565b5b6040519080825280601f01601f1916602001820160405280156123315781602001600182028036833780820191505090505b5090505b600085146123be5760018261234a9190613f66565b9150600a856123599190614436565b60306123659190614239565b60f81b81838151811061237b5761237a613fc3565b5b60200101907effffffffffffffffffffffffffffffffffffffffffffffffffffffffffffff1916908160001a905350600a856123b79190614405565b9450612335565b8093505050505b919050565b606060008251905060008114156123f3576040518060200160405280600081525091505061255d565b600060036002836124049190614239565b61240e9190614405565b600461241a9190614467565b9050600060208261242b9190614239565b67ffffffffffffffff81111561244457612443613211565b5b6040519080825280601f01601f1916602001820160405280156124765781602001600182028036833780820191505090505b5090506000604051806060016040528060408152602001614763604091399050600181016020830160005b8681101561251a5760038101905062ffffff818a015116603f8160121c168401518060081b905060ff603f83600c1c1686015116810190508060081b905060ff603f8360061c1686015116810190508060081b905060ff603f831686015116810190508060e01b905080845260048401935050506124a1565b50600386066001811461253457600281146125445761254f565b613d3d60f01b600283035261254f565b603d60f81b60018303525b508484525050819450505050505b919050565b6125fe8484848460405160240161257c94939291906144c1565b6040516020818303038152906040527fd5cf17d0000000000000000000000000000000000000000000000000000000007bffffffffffffffffffffffffffffffffffffffffffffffffffffffff19166020820180517bffffffffffffffffffffffffffffffffffffffffffffffffffffffff838183161783525050505061276b565b50505050565b61269c828260405160240161261a929190614514565b6040516020818303038152906040527f9710a9d0000000000000000000000000000000000000000000000000000000007bffffffffffffffffffffffffffffffffffffffffffffffffffffffff19166020820180517bffffffffffffffffffffffffffffffffffffffffffffffffffffffff838183161783525050505061276b565b5050565b600081600001549050919050565b6126c8828260405180602001604052806000815250612930565b5050565b6127668383836040516024016126e493929190614544565b6040516020818303038152906040527f969cdd03000000000000000000000000000000000000000000000000000000007bffffffffffffffffffffffffffffffffffffffffffffffffffffffff19166020820180517bffffffffffffffffffffffffffffffffffffffffffffffffffffffff838183161783525050505061276b565b505050565b60008151905060006a636f6e736f6c652e6c6f679050602083016000808483855afa5050505050565b505050565b60006127ba8473ffffffffffffffffffffffffffffffffffffffff1661298b565b15612923578373ffffffffffffffffffffffffffffffffffffffff1663150b7a026127e3611ca5565b8786866040518563ffffffff1660e01b815260040161280594939291906145d7565b602060405180830381600087803b15801561281f57600080fd5b505af192505050801561285057506040513d601f19601f8201168201806040525081019061284d9190614638565b60015b6128d3573d8060008114612880576040519150601f19603f3d011682016040523d82523d6000602084013e612885565b606091505b506000815114156128cb576040517f08c379a00000000000000000000000000000000000000000000000000000000081526004016128c29061436d565b60405180910390fd5b805181602001fd5b63150b7a0260e01b7bffffffffffffffffffffffffffffffffffffffffffffffffffffffff1916817bffffffffffffffffffffffffffffffffffffffffffffffffffffffff191614915050612928565b600190505b949350505050565b61293a838361299e565b6129476000848484612799565b612986576040517f08c379a000000000000000000000000000000000000000000000000000000000815260040161297d9061436d565b60405180910390fd5b505050565b600080823b905060008111915050919050565b600073ffffffffffffffffffffffffffffffffffffffff168273ffffffffffffffffffffffffffffffffffffffff161415612a0e576040517f08c379a0000000000000000000000000000000000000000000000000000000008152600401612a05906146b1565b60405180910390fd5b612a1781611c39565b15612a57576040517f08c379a0000000000000000000000000000000000000000000000000000000008152600401612a4e9061471d565b60405180910390fd5b612a6360008383612794565b6001600360008473ffffffffffffffffffffffffffffffffffffffff1673ffffffffffffffffffffffffffffffffffffffff1681526020019081526020016000206000828254612ab39190614239565b92505081905550816002600083815260200190815260200160002060006101000a81548173ffffffffffffffffffffffffffffffffffffffff021916908373ffffffffffffffffffffffffffffffffffffffff160217905550808273ffffffffffffffffffffffffffffffffffffffff16600073ffffffffffffffffffffffffffffffffffffffff167fddf252ad1be2c89b69c2b068fc378daa952ba7f163c4a11628f55a4df523b3ef60405160405180910390a45050565b6040518060a0016040528060608152602001606081526020016000815260200160008152602001600081525090565b6040518060c001604052806000815260200160608152602001606081526020016000815260200160008152602001600081525090565b828054612bdd90613654565b90600052602060002090601f016020900481019282612bff5760008555612c46565b82601f10612c1857805160ff1916838001178555612c46565b82800160010185558215612c46579182015b82811115612c45578251825591602001919060010190612c2a565b5b509050612c539190612c57565b5090565b5b80821115612c70576000816000905550600101612c58565b5090565b6000604051905090565b600080fd5b600080fd5b60007fffffffff0000000000000000000000000000000000000000000000000000000082169050919050565b612cbd81612c88565b8114612cc857600080fd5b50565b600081359050612cda81612cb4565b92915050565b600060208284031215612cf657612cf5612c7e565b5b6000612d0484828501612ccb565b91505092915050565b60008115159050919050565b612d2281612d0d565b82525050565b6000602082019050612d3d6000830184612d19565b92915050565b600081519050919050565b600082825260208201905092915050565b60005b83811015612d7d578082015181840152602081019050612d62565b83811115612d8c576000848401525b50505050565b6000601f19601f8301169050919050565b6000612dae82612d43565b612db88185612d4e565b9350612dc8818560208601612d5f565b612dd181612d92565b840191505092915050565b6000819050919050565b612def81612ddc565b82525050565b600060a0830160008301518482036000860152612e128282612da3565b91505060208301518482036020860152612e2c8282612da3565b9150506040830151612e416040860182612de6565b506060830151612e546060860182612de6565b506080830151612e676080860182612de6565b508091505092915050565b60006020820190508181036000830152612e8c8184612df5565b905092915050565b600082825260208201905092915050565b6000612eb082612d43565b612eba8185612e94565b9350612eca818560208601612d5f565b612ed381612d92565b840191505092915050565b60006020820190508181036000830152612ef88184612ea5565b905092915050565b612f0981612ddc565b8114612f1457600080fd5b50565b600081359050612f2681612f00565b92915050565b600060208284031215612f4257612f41612c7e565b5b6000612f5084828501612f17565b91505092915050565b600073ffffffffffffffffffffffffffffffffffffffff82169050919050565b6000612f8482612f59565b9050919050565b612f9481612f79565b82525050565b6000602082019050612faf6000830184612f8b565b92915050565b612fbe81612f79565b8114612fc957600080fd5b50565b600081359050612fdb81612fb5565b92915050565b60008060408385031215612ff857612ff7612c7e565b5b600061300685828601612fcc565b925050602061301785828601612f17565b9150509250929050565b60008060006060848603121561303a57613039612c7e565b5b600061304886828701612fcc565b935050602061305986828701612fcc565b925050604061306a86828701612f17565b9150509250925092565b60006020828403121561308a57613089612c7e565b5b600061309884828501612fcc565b91505092915050565b6130aa81612ddc565b82525050565b60006020820190506130c560008301846130a1565b92915050565b600060c0820190506130e060008301896130a1565b81810360208301526130f28188612ea5565b905081810360408301526131068187612ea5565b905061311560608301866130a1565b61312260808301856130a1565b61312f60a08301846130a1565b979650505050505050565b61314381612d0d565b811461314e57600080fd5b50565b6000813590506131608161313a565b92915050565b6000806040838503121561317d5761317c612c7e565b5b600061318b85828601612fcc565b925050602061319c85828601613151565b9150509250929050565b600060a08201905081810360008301526131c08188612ea5565b905081810360208301526131d48187612ea5565b90506131e360408301866130a1565b6131f060608301856130a1565b6131fd60808301846130a1565b9695505050505050565b600080fd5b600080fd5b7f4e487b7100000000000000000000000000000000000000000000000000000000600052604160045260246000fd5b61324982612d92565b810181811067ffffffffffffffff8211171561326857613267613211565b5b80604052505050565b600061327b612c74565b90506132878282613240565b919050565b600067ffffffffffffffff8211156132a7576132a6613211565b5b6132b082612d92565b9050602081019050919050565b82818337600083830152505050565b60006132df6132da8461328c565b613271565b9050828152602081018484840111156132fb576132fa61320c565b5b6133068482856132bd565b509392505050565b600082601f83011261332357613322613207565b5b81356133338482602086016132cc565b91505092915050565b6000806000806080858703121561335657613355612c7e565b5b600061336487828801612fcc565b945050602061337587828801612fcc565b935050604061338687828801612f17565b925050606085013567ffffffffffffffff8111156133a7576133a6612c83565b5b6133b38782880161330e565b91505092959194509250565b600081519050919050565b600082825260208201905092915050565b6000819050602082019050919050565b600060c0830160008301516134036000860182612de6565b506020830151848203602086015261341b8282612da3565b915050604083015184820360408601526134358282612da3565b915050606083015161344a6060860182612de6565b50608083015161345d6080860182612de6565b5060a083015161347060a0860182612de6565b508091505092915050565b600061348783836133eb565b905092915050565b6000602082019050919050565b60006134a7826133bf565b6134b181856133ca565b9350836020820285016134c3856133db565b8060005b858110156134ff57848403895281516134e0858261347b565b94506134eb8361348f565b925060208a019950506001810190506134c7565b50829750879550505050505092915050565b6000602082019050818103600083015261352b818461349c565b905092915050565b600060c08301600083015161354b6000860182612de6565b50602083015184820360208601526135638282612da3565b9150506040830151848203604086015261357d8282612da3565b91505060608301516135926060860182612de6565b5060808301516135a56080860182612de6565b5060a08301516135b860a0860182612de6565b508091505092915050565b600060208201905081810360008301526135dd8184613533565b905092915050565b600080604083850312156135fc576135fb612c7e565b5b600061360a85828601612fcc565b925050602061361b85828601612fcc565b9150509250929050565b7f4e487b7100000000000000000000000000000000000000000000000000000000600052602260045260246000fd5b6000600282049050600182168061366c57607f821691505b602082108114156136805761367f613625565b5b50919050565b7f4552433732313a20617070726f76656420717565727920666f72206e6f6e657860008201527f697374656e7420746f6b656e0000000000000000000000000000000000000000602082015250565b60006136e2602c83612e94565b91506136ed82613686565b604082019050919050565b60006020820190508181036000830152613711816136d5565b9050919050565b7f4552433732313a20617070726f76616c20746f2063757272656e74206f776e6560008201527f7200000000000000000000000000000000000000000000000000000000000000602082015250565b6000613774602183612e94565b915061377f82613718565b604082019050919050565b600060208201905081810360008301526137a381613767565b9050919050565b7f4552433732313a20617070726f76652063616c6c6572206973206e6f74206f7760008201527f6e6572206e6f7220617070726f76656420666f7220616c6c0000000000000000602082015250565b6000613806603883612e94565b9150613811826137aa565b604082019050919050565b60006020820190508181036000830152613835816137f9565b9050919050565b7f4552433732313a207472616e736665722063616c6c6572206973206e6f74206f60008201527f776e6572206e6f7220617070726f766564000000000000000000000000000000602082015250565b6000613898603183612e94565b91506138a38261383c565b604082019050919050565b600060208201905081810360008301526138c78161388b565b9050919050565b7f4552433732313a206f776e657220717565727920666f72206e6f6e657869737460008201527f656e7420746f6b656e0000000000000000000000000000000000000000000000602082015250565b600061392a602983612e94565b9150613935826138ce565b604082019050919050565b600060208201905081810360008301526139598161391d565b9050919050565b7f4552433732313a2062616c616e636520717565727920666f7220746865207a6560008201527f726f206164647265737300000000000000000000000000000000000000000000602082015250565b60006139bc602a83612e94565b91506139c782613960565b604082019050919050565b600060208201905081810360008301526139eb816139af565b9050919050565b600081905092915050565b7f7b226e616d65223a202200000000000000000000000000000000000000000000600082015250565b6000613a33600a836139f2565b9150613a3e826139fd565b600a82019050919050565b6000613a5482612d43565b613a5e81856139f2565b9350613a6e818560208601612d5f565b80840191505092915050565b7f202d2d204e465420233a20000000000000000000000000000000000000000000600082015250565b6000613ab0600b836139f2565b9150613abb82613a7a565b600b82019050919050565b7f222c20226465736372697074696f6e223a20225468697320697320616e204e4660008201527f542074686174206c6574732070656f706c6520706c617920612067616d65206960208201527f6e2074686520536f6e696320556e69766572736521222c2022696d616765223a60408201527f2022000000000000000000000000000000000000000000000000000000000000606082015250565b6000613b6e6062836139f2565b9150613b7982613ac6565b606282019050919050565b7f222c202261747472696275746573223a205b207b202274726169745f7479706560008201527f223a20224865616c746820506f696e7473222c202276616c7565223a20000000602082015250565b6000613be0603d836139f2565b9150613beb82613b84565b603d82019050919050565b7f2c20226d61785f76616c7565223a000000000000000000000000000000000000600082015250565b6000613c2c600e836139f2565b9150613c3782613bf6565b600e82019050919050565b7f7d2c207b202274726169745f74797065223a202241747461636b2044616d616760008201527f65222c202276616c7565223a2000000000000000000000000000000000000000602082015250565b6000613c9e602d836139f2565b9150613ca982613c42565b602d82019050919050565b7f7d205d7d00000000000000000000000000000000000000000000000000000000600082015250565b6000613cea6004836139f2565b9150613cf582613cb4565b600482019050919050565b6000613d0b82613a26565b9150613d178289613a49565b9150613d2282613aa3565b9150613d2e8288613a49565b9150613d3982613b61565b9150613d458287613a49565b9150613d5082613bd3565b9150613d5c8286613a49565b9150613d6782613c1f565b9150613d738285613a49565b9150613d7e82613c91565b9150613d8a8284613a49565b9150613d9582613cdd565b9150819050979650505050505050565b7f646174613a6170706c69636174696f6e2f6a736f6e3b6261736536342c000000600082015250565b6000613ddb601d836139f2565b9150613de682613da5565b601d82019050919050565b6000613dfc82613dce565b9150613e088284613a49565b915081905092915050565b7f4572726f723a20636861726163746572206d757374206861766520485020746f60008201527f2061747461636b20626f73732e00000000000000000000000000000000000000602082015250565b6000613e6f602d83612e94565b9150613e7a82613e13565b604082019050919050565b60006020820190508181036000830152613e9e81613e62565b9050919050565b7f4572726f723a20626f7373206d757374206861766520485020746f206174746160008201527f636b20626f73732e000000000000000000000000000000000000000000000000602082015250565b6000613f01602883612e94565b9150613f0c82613ea5565b604082019050919050565b60006020820190508181036000830152613f3081613ef4565b9050919050565b7f4e487b7100000000000000000000000000000000000000000000000000000000600052601160045260246000fd5b6000613f7182612ddc565b9150613f7c83612ddc565b925082821015613f8f57613f8e613f37565b5b828203905092915050565b6000604082019050613faf60008301856130a1565b613fbc60208301846130a1565b9392505050565b7f4e487b7100000000000000000000000000000000000000000000000000000000600052603260045260246000fd5b60006060820190506140076000830186612f8b565b61401460208301856130a1565b61402160408301846130a1565b949350505050565b600060808201905081810360008301526140438187612ea5565b905081810360208301526140578186612ea5565b905061406660408301856130a1565b81810360608301526140788184612ea5565b905095945050505050565b7f4552433732313a206f70657261746f7220717565727920666f72206e6f6e657860008201527f697374656e7420746f6b656e0000000000000000000000000000000000000000602082015250565b60006140df602c83612e94565b91506140ea82614083565b604082019050919050565b6000602082019050818103600083015261410e816140d2565b9050919050565b7f4552433732313a207472616e73666572206f6620746f6b656e2074686174206960008201527f73206e6f74206f776e0000000000000000000000000000000000000000000000602082015250565b6000614171602983612e94565b915061417c82614115565b604082019050919050565b600060208201905081810360008301526141a081614164565b9050919050565b7f4552433732313a207472616e7366657220746f20746865207a65726f2061646460008201527f7265737300000000000000000000000000000000000000000000000000000000602082015250565b6000614203602483612e94565b915061420e826141a7565b604082019050919050565b60006020820190508181036000830152614232816141f6565b9050919050565b600061424482612ddc565b915061424f83612ddc565b9250827fffffffffffffffffffffffffffffffffffffffffffffffffffffffffffffffff0382111561428457614283613f37565b5b828201905092915050565b7f4552433732313a20617070726f766520746f2063616c6c657200000000000000600082015250565b60006142c5601983612e94565b91506142d08261428f565b602082019050919050565b600060208201905081810360008301526142f4816142b8565b9050919050565b7f4552433732313a207472616e7366657220746f206e6f6e20455243373231526560008201527f63656976657220696d706c656d656e7465720000000000000000000000000000602082015250565b6000614357603283612e94565b9150614362826142fb565b604082019050919050565b600060208201905081810360008301526143868161434a565b9050919050565b600061439882612ddc565b91507fffffffffffffffffffffffffffffffffffffffffffffffffffffffffffffffff8214156143cb576143ca613f37565b5b600182019050919050565b7f4e487b7100000000000000000000000000000000000000000000000000000000600052601260045260246000fd5b600061441082612ddc565b915061441b83612ddc565b92508261442b5761442a6143d6565b5b828204905092915050565b600061444182612ddc565b915061444c83612ddc565b92508261445c5761445b6143d6565b5b828206905092915050565b600061447282612ddc565b915061447d83612ddc565b9250817fffffffffffffffffffffffffffffffffffffffffffffffffffffffffffffffff04831182151516156144b6576144b5613f37565b5b828202905092915050565b600060808201905081810360008301526144db8187612ea5565b905081810360208301526144ef8186612ea5565b90506144fe60408301856130a1565b61450b60608301846130a1565b95945050505050565b6000604082019050818103600083015261452e8185612ea5565b905061453d60208301846130a1565b9392505050565b6000606082019050818103600083015261455e8186612ea5565b905061456d60208301856130a1565b61457a60408301846130a1565b949350505050565b600081519050919050565b600082825260208201905092915050565b60006145a982614582565b6145b3818561458d565b93506145c3818560208601612d5f565b6145cc81612d92565b840191505092915050565b60006080820190506145ec6000830187612f8b565b6145f96020830186612f8b565b61460660408301856130a1565b8181036060830152614618818461459e565b905095945050505050565b60008151905061463281612cb4565b92915050565b60006020828403121561464e5761464d612c7e565b5b600061465c84828501614623565b91505092915050565b7f4552433732313a206d696e7420746f20746865207a65726f2061646472657373600082015250565b600061469b602083612e94565b91506146a682614665565b602082019050919050565b600060208201905081810360008301526146ca8161468e565b9050919050565b7f4552433732313a20746f6b656e20616c7265616479206d696e74656400000000600082015250565b6000614707601c83612e94565b9150614712826146d1565b602082019050919050565b60006020820190508181036000830152614736816146fa565b905091905056fe506c617965722061747461636b656420626f73732e204e657720626f73732068703a2025734142434445464748494a4b4c4d4e4f505152535455565758595a6162636465666768696a6b6c6d6e6f707172737475767778797a303132333435363738392b2f426f73732061747461636b656420706c617965722e204e657720706c617965722068703a2025730a4d696e746564204e465420772f20746f6b656e496420257320616e6420636861726163746572496e6465782025730a506c6179657220772f206368617261637465722025732061626f757420746f2061747461636b2e2048617320257320485020616e64202573204144a2646970667358221220c826ae9c59b9161f1faf9761f89621e93bbfddabe49743828273dd07c8ca617064736f6c63430008090033446f6e6520696e697469616c697a696e6720257320772f2048502025732c20696d67202573446f6e6520696e697469616c697a696e6720626f737320257320772f2048502025732c20696d67202573",
    "linkReferences": {},
    "deployedLinkReferences": {}
}